{
  "_format": "hh-sol-artifact-1",
  "contractName": "Lock",
  "sourceName": "contracts/Lock.sol",
  "abi": [
    {
      "inputs": [
        {
          "internalType": "string",
          "name": "_tweetmsg",
          "type": "string"
        },
        {
          "internalType": "string",
          "name": "_nickName",
          "type": "string"
        }
      ],
      "name": "addTwitter",
      "outputs": [],
      "stateMutability": "nonpayable",
      "type": "function"
    },
    {
      "inputs": [],
      "name": "counter",
      "outputs": [
        {
          "internalType": "uint256",
          "name": "",
          "type": "uint256"
        }
      ],
      "stateMutability": "view",
      "type": "function"
    },
    {
      "inputs": [],
      "name": "getResult",
      "outputs": [
        {
          "components": [
            {
              "internalType": "string",
              "name": "_tweetmsg",
              "type": "string"
            },
            {
              "internalType": "string",
              "name": "_nickName",
              "type": "string"
            },
            {
              "internalType": "address",
              "name": "_address",
              "type": "address"
            },
            {
              "internalType": "uint256",
              "name": "_uniqid",
              "type": "uint256"
            }
          ],
          "internalType": "struct Lock.Twitter[]",
          "name": "",
          "type": "tuple[]"
        }
      ],
      "stateMutability": "view",
      "type": "function"
    },
    {
      "inputs": [
        {
          "internalType": "uint256",
          "name": "index",
          "type": "uint256"
        }
      ],
      "name": "remove",
      "outputs": [],
      "stateMutability": "nonpayable",
      "type": "function"
    },
    {
      "inputs": [
        {
          "internalType": "string",
          "name": "_msg",
          "type": "string"
        },
        {
          "internalType": "string",
          "name": "_newmesg",
          "type": "string"
        },
        {
          "internalType": "uint256",
          "name": "_unicid",
          "type": "uint256"
        }
      ],
      "name": "replacemsg",
      "outputs": [],
      "stateMutability": "nonpayable",
      "type": "function"
    },
    {
      "inputs": [
        {
          "internalType": "uint256",
          "name": "",
          "type": "uint256"
        }
      ],
      "name": "tweet",
      "outputs": [
        {
          "internalType": "string",
          "name": "_tweetmsg",
          "type": "string"
        },
        {
          "internalType": "string",
          "name": "_nickName",
          "type": "string"
        },
        {
          "internalType": "address",
          "name": "_address",
          "type": "address"
        },
        {
          "internalType": "uint256",
          "name": "_uniqid",
          "type": "uint256"
        }
      ],
      "stateMutability": "view",
      "type": "function"
    },
    {
      "inputs": [],
      "name": "value",
      "outputs": [
        {
          "internalType": "string",
          "name": "",
          "type": "string"
        }
      ],
      "stateMutability": "view",
      "type": "function"
    },
    {
      "inputs": [],
      "name": "value1",
      "outputs": [
        {
          "internalType": "bytes32",
          "name": "",
          "type": "bytes32"
        }
      ],
      "stateMutability": "view",
      "type": "function"
    },
    {
      "inputs": [],
      "name": "value2",
      "outputs": [
        {
          "internalType": "bytes32",
          "name": "",
          "type": "bytes32"
        }
      ],
      "stateMutability": "view",
      "type": "function"
    },
    {
      "inputs": [],
      "name": "valuemsg",
      "outputs": [
        {
          "internalType": "string",
          "name": "",
          "type": "string"
        }
      ],
      "stateMutability": "view",
      "type": "function"
    }
  ],
  "bytecode": "0x608060405234801561001057600080fd5b50611702806100206000396000f3fe608060405234801561001057600080fd5b506004361061009e5760003560e01c80635d33a27f116100665780635d33a27f1461013557806361bc221a14610153578063de29278914610171578063f753423a1461018f578063fbe165d5146101c25761009e565b80630eac9478146100a35780633033413b146100bf5780633fa4f245146100dd57806347744f4d146100fb5780634cc8221514610119575b600080fd5b6100bd60048036038101906100b89190610c4a565b6101de565b005b6100c76102dc565b6040516100d49190610cdb565b60405180910390f35b6100e56102e2565b6040516100f29190610d75565b60405180910390f35b610103610370565b6040516101109190610d75565b60405180910390f35b610133600480360381019061012e9190610dcd565b6103fe565b005b61013d61059c565b60405161014a9190610cdb565b60405180910390f35b61015b6105a2565b6040516101689190610e09565b60405180910390f35b6101796105a8565b6040516101869190610fea565b60405180910390f35b6101a960048036038101906101a49190610dcd565b61078b565b6040516101b9949392919061101b565b60405180910390f35b6101dc60048036038101906101d7919061106e565b6108fb565b005b600060405180608001604052808481526020018381526020013373ffffffffffffffffffffffffffffffffffffffff16815260200142815250908060018154018082558091505060019003906000526020600020906004020160009091909190915060008201518160000190816102559190611305565b50602082015181600101908161026b9190611305565b5060408201518160020160006101000a81548173ffffffffffffffffffffffffffffffffffffffff021916908373ffffffffffffffffffffffffffffffffffffffff16021790555060608201518160030155505060018060008282546102d19190611406565b925050819055505050565b60045481565b600280546102ef90611128565b80601f016020809104026020016040519081016040528092919081815260200182805461031b90611128565b80156103685780601f1061033d57610100808354040283529160200191610368565b820191906000526020600020905b81548152906001019060200180831161034b57829003601f168201915b505050505081565b6003805461037d90611128565b80601f01602080910402602001604051908101604052809291908181526020018280546103a990611128565b80156103f65780601f106103cb576101008083540402835291602001916103f6565b820191906000526020600020905b8154815290600101906020018083116103d957829003601f168201915b505050505081565b60008190505b6001600080549050610416919061143a565b81101561051e57600060018261042c9190611406565b8154811061043d5761043c61146e565b5b90600052602060002090600402016000828154811061045f5761045e61146e565b5b90600052602060002090600402016000820181600001908161048191906114b3565b506001820181600101908161049691906114b3565b506002820160009054906101000a900473ffffffffffffffffffffffffffffffffffffffff168160020160006101000a81548173ffffffffffffffffffffffffffffffffffffffff021916908373ffffffffffffffffffffffffffffffffffffffff1602179055506003820154816003015590505080806105169061159b565b915050610404565b506000805480610531576105306115e3565b5b6001900381819060005260206000209060040201600080820160006105569190610a93565b6001820160006105669190610a93565b6002820160006101000a81549073ffffffffffffffffffffffffffffffffffffffff021916905560038201600090555050905550565b60055481565b60015481565b60606000805480602002602001604051908101604052809291908181526020016000905b8282101561078257838290600052602060002090600402016040518060800160405290816000820180546105ff90611128565b80601f016020809104026020016040519081016040528092919081815260200182805461062b90611128565b80156106785780601f1061064d57610100808354040283529160200191610678565b820191906000526020600020905b81548152906001019060200180831161065b57829003601f168201915b5050505050815260200160018201805461069190611128565b80601f01602080910402602001604051908101604052809291908181526020018280546106bd90611128565b801561070a5780601f106106df5761010080835404028352916020019161070a565b820191906000526020600020905b8154815290600101906020018083116106ed57829003601f168201915b505050505081526020016002820160009054906101000a900473ffffffffffffffffffffffffffffffffffffffff1673ffffffffffffffffffffffffffffffffffffffff1673ffffffffffffffffffffffffffffffffffffffff168152602001600382015481525050815260200190600101906105cc565b50505050905090565b6000818154811061079b57600080fd5b90600052602060002090600402016000915090508060000180546107be90611128565b80601f01602080910402602001604051908101604052809291908181526020018280546107ea90611128565b80156108375780601f1061080c57610100808354040283529160200191610837565b820191906000526020600020905b81548152906001019060200180831161081a57829003601f168201915b50505050509080600101805461084c90611128565b80601f016020809104026020016040519081016040528092919081815260200182805461087890611128565b80156108c55780601f1061089a576101008083540402835291602001916108c5565b820191906000526020600020905b8154815290600101906020018083116108a857829003601f168201915b5050505050908060020160009054906101000a900473ffffffffffffffffffffffffffffffffffffffff16908060030154905084565b60005b600154811015610a8d578380519060200120600082815481106109245761092361146e565b5b906000526020600020906004020160000160405161094291906116b5565b60405180910390201480156109c757503373ffffffffffffffffffffffffffffffffffffffff166000828154811061097d5761097c61146e565b5b906000526020600020906004020160020160009054906101000a900473ffffffffffffffffffffffffffffffffffffffff1673ffffffffffffffffffffffffffffffffffffffff16145b80156109f7575081600082815481106109e3576109e261146e565b5b906000526020600020906004020160030154145b15610a34578260008281548110610a1157610a1061146e565b5b90600052602060002090600402016000019081610a2e9190611305565b50610a7a565b6040518060400160405280600881526020017f6e6f74666f756e6400000000000000000000000000000000000000000000000081525060029081610a789190611305565b505b8080610a859061159b565b9150506108fe565b50505050565b508054610a9f90611128565b6000825580601f10610ab15750610ad0565b601f016020900490600052602060002090810190610acf9190610ad3565b5b50565b5b80821115610aec576000816000905550600101610ad4565b5090565b6000604051905090565b600080fd5b600080fd5b600080fd5b600080fd5b6000601f19601f8301169050919050565b7f4e487b7100000000000000000000000000000000000000000000000000000000600052604160045260246000fd5b610b5782610b0e565b810181811067ffffffffffffffff82111715610b7657610b75610b1f565b5b80604052505050565b6000610b89610af0565b9050610b958282610b4e565b919050565b600067ffffffffffffffff821115610bb557610bb4610b1f565b5b610bbe82610b0e565b9050602081019050919050565b82818337600083830152505050565b6000610bed610be884610b9a565b610b7f565b905082815260208101848484011115610c0957610c08610b09565b5b610c14848285610bcb565b509392505050565b600082601f830112610c3157610c30610b04565b5b8135610c41848260208601610bda565b91505092915050565b60008060408385031215610c6157610c60610afa565b5b600083013567ffffffffffffffff811115610c7f57610c7e610aff565b5b610c8b85828601610c1c565b925050602083013567ffffffffffffffff811115610cac57610cab610aff565b5b610cb885828601610c1c565b9150509250929050565b6000819050919050565b610cd581610cc2565b82525050565b6000602082019050610cf06000830184610ccc565b92915050565b600081519050919050565b600082825260208201905092915050565b60005b83811015610d30578082015181840152602081019050610d15565b60008484015250505050565b6000610d4782610cf6565b610d518185610d01565b9350610d61818560208601610d12565b610d6a81610b0e565b840191505092915050565b60006020820190508181036000830152610d8f8184610d3c565b905092915050565b6000819050919050565b610daa81610d97565b8114610db557600080fd5b50565b600081359050610dc781610da1565b92915050565b600060208284031215610de357610de2610afa565b5b6000610df184828501610db8565b91505092915050565b610e0381610d97565b82525050565b6000602082019050610e1e6000830184610dfa565b92915050565b600081519050919050565b600082825260208201905092915050565b6000819050602082019050919050565b600082825260208201905092915050565b6000610e6c82610cf6565b610e768185610e50565b9350610e86818560208601610d12565b610e8f81610b0e565b840191505092915050565b600073ffffffffffffffffffffffffffffffffffffffff82169050919050565b6000610ec582610e9a565b9050919050565b610ed581610eba565b82525050565b610ee481610d97565b82525050565b60006080830160008301518482036000860152610f078282610e61565b91505060208301518482036020860152610f218282610e61565b9150506040830151610f366040860182610ecc565b506060830151610f496060860182610edb565b508091505092915050565b6000610f608383610eea565b905092915050565b6000602082019050919050565b6000610f8082610e24565b610f8a8185610e2f565b935083602082028501610f9c85610e40565b8060005b85811015610fd85784840389528151610fb98582610f54565b9450610fc483610f68565b925060208a01995050600181019050610fa0565b50829750879550505050505092915050565b600060208201905081810360008301526110048184610f75565b905092915050565b61101581610eba565b82525050565b600060808201905081810360008301526110358187610d3c565b905081810360208301526110498186610d3c565b9050611058604083018561100c565b6110656060830184610dfa565b95945050505050565b60008060006060848603121561108757611086610afa565b5b600084013567ffffffffffffffff8111156110a5576110a4610aff565b5b6110b186828701610c1c565b935050602084013567ffffffffffffffff8111156110d2576110d1610aff565b5b6110de86828701610c1c565b92505060406110ef86828701610db8565b9150509250925092565b7f4e487b7100000000000000000000000000000000000000000000000000000000600052602260045260246000fd5b6000600282049050600182168061114057607f821691505b602082108103611153576111526110f9565b5b50919050565b60008190508160005260206000209050919050565b60006020601f8301049050919050565b600082821b905092915050565b6000600883026111bb7fffffffffffffffffffffffffffffffffffffffffffffffffffffffffffffffff8261117e565b6111c5868361117e565b95508019841693508086168417925050509392505050565b6000819050919050565b60006112026111fd6111f884610d97565b6111dd565b610d97565b9050919050565b6000819050919050565b61121c836111e7565b61123061122882611209565b84845461118b565b825550505050565b600090565b611245611238565b611250818484611213565b505050565b5b818110156112745761126960008261123d565b600181019050611256565b5050565b601f8211156112b95761128a81611159565b6112938461116e565b810160208510156112a2578190505b6112b66112ae8561116e565b830182611255565b50505b505050565b600082821c905092915050565b60006112dc600019846008026112be565b1980831691505092915050565b60006112f583836112cb565b9150826002028217905092915050565b61130e82610cf6565b67ffffffffffffffff81111561132757611326610b1f565b5b6113318254611128565b61133c828285611278565b600060209050601f83116001811461136f576000841561135d578287015190505b61136785826112e9565b8655506113cf565b601f19841661137d86611159565b60005b828110156113a557848901518255600182019150602085019450602081019050611380565b868310156113c257848901516113be601f8916826112cb565b8355505b6001600288020188555050505b505050505050565b7f4e487b7100000000000000000000000000000000000000000000000000000000600052601160045260246000fd5b600061141182610d97565b915061141c83610d97565b9250828201905080821115611434576114336113d7565b5b92915050565b600061144582610d97565b915061145083610d97565b9250828203905081811115611468576114676113d7565b5b92915050565b7f4e487b7100000000000000000000000000000000000000000000000000000000600052603260045260246000fd5b6000815490506114ac81611128565b9050919050565b8181036114c1575050611599565b6114ca8261149d565b67ffffffffffffffff8111156114e3576114e2610b1f565b5b6114ed8254611128565b6114f8828285611278565b6000601f8311600181146115275760008415611515578287015490505b61151f85826112e9565b865550611592565b601f19841661153587611159565b965061154086611159565b60005b8281101561156857848901548255600182019150600185019450602081019050611543565b868310156115855784890154611581601f8916826112cb565b8355505b6001600288020188555050505b5050505050505b565b60006115a682610d97565b91507fffffffffffffffffffffffffffffffffffffffffffffffffffffffffffffffff82036115d8576115d76113d7565b5b600182019050919050565b7f4e487b7100000000000000000000000000000000000000000000000000000000600052603160045260246000fd5b600081905092915050565b60008190508160005260206000209050919050565b6000815461163f81611128565b6116498186611612565b945060018216600081146116645760018114611679576116ac565b60ff19831686528115158202860193506116ac565b6116828561161d565b60005b838110156116a457815481890152600182019150602081019050611685565b838801955050505b50505092915050565b60006116c18284611632565b91508190509291505056fea2646970667358221220765da04c675faa2db31a5844aebc28bb9fc286b74d604727f83855ef64fe7c5464736f6c63430008110033",
  "linkReferences": {},
  "deployedLinkReferences": {}
}